{
  "contractName": "DecentralizedLottery",
  "abi": [
    {
      "inputs": [
        {
          "internalType": "uint256",
          "name": "_ticketPrice",
          "type": "uint256"
        }
      ],
      "stateMutability": "nonpayable",
      "type": "constructor"
    },
    {
      "anonymous": false,
      "inputs": [],
      "name": "LotteryClosed",
      "type": "event"
    },
    {
      "anonymous": false,
      "inputs": [],
      "name": "LotteryOpened",
      "type": "event"
    },
    {
      "anonymous": false,
      "inputs": [
        {
          "indexed": true,
          "internalType": "address",
          "name": "previousOwner",
          "type": "address"
        },
        {
          "indexed": true,
          "internalType": "address",
          "name": "newOwner",
          "type": "address"
        }
      ],
      "name": "OwnershipTransferred",
      "type": "event"
    },
    {
      "anonymous": false,
      "inputs": [
        {
          "indexed": true,
          "internalType": "address",
          "name": "player",
          "type": "address"
        },
        {
          "indexed": false,
          "internalType": "uint256",
          "name": "ticketPrice",
          "type": "uint256"
        }
      ],
      "name": "TicketPurchased",
      "type": "event"
    },
    {
      "anonymous": false,
      "inputs": [
        {
          "indexed": true,
          "internalType": "address",
          "name": "winner",
          "type": "address"
        },
        {
          "indexed": false,
          "internalType": "uint256",
          "name": "prizeAmount",
          "type": "uint256"
        }
      ],
      "name": "WinnerSelected",
      "type": "event"
    },
    {
      "inputs": [],
      "name": "lastWinner",
      "outputs": [
        {
          "internalType": "address",
          "name": "",
          "type": "address"
        }
      ],
      "stateMutability": "view",
      "type": "function",
      "constant": true
    },
    {
      "inputs": [],
      "name": "lotteryOpen",
      "outputs": [
        {
          "internalType": "bool",
          "name": "",
          "type": "bool"
        }
      ],
      "stateMutability": "view",
      "type": "function",
      "constant": true
    },
    {
      "inputs": [],
      "name": "owner",
      "outputs": [
        {
          "internalType": "address",
          "name": "",
          "type": "address"
        }
      ],
      "stateMutability": "view",
      "type": "function",
      "constant": true
    },
    {
      "inputs": [
        {
          "internalType": "uint256",
          "name": "",
          "type": "uint256"
        }
      ],
      "name": "participants",
      "outputs": [
        {
          "internalType": "address",
          "name": "",
          "type": "address"
        }
      ],
      "stateMutability": "view",
      "type": "function",
      "constant": true
    },
    {
      "inputs": [],
      "name": "renounceOwnership",
      "outputs": [],
      "stateMutability": "nonpayable",
      "type": "function"
    },
    {
      "inputs": [],
      "name": "ticketPrice",
      "outputs": [
        {
          "internalType": "uint256",
          "name": "",
          "type": "uint256"
        }
      ],
      "stateMutability": "view",
      "type": "function",
      "constant": true
    },
    {
      "inputs": [
        {
          "internalType": "address",
          "name": "newOwner",
          "type": "address"
        }
      ],
      "name": "transferOwnership",
      "outputs": [],
      "stateMutability": "nonpayable",
      "type": "function"
    },
    {
      "inputs": [],
      "name": "buyTicket",
      "outputs": [],
      "stateMutability": "payable",
      "type": "function",
      "payable": true
    },
    {
      "inputs": [],
      "name": "selectWinner",
      "outputs": [],
      "stateMutability": "nonpayable",
      "type": "function"
    },
    {
      "inputs": [],
      "name": "openNewLottery",
      "outputs": [],
      "stateMutability": "nonpayable",
      "type": "function"
    },
    {
      "inputs": [
        {
          "internalType": "uint256",
          "name": "_newPrice",
          "type": "uint256"
        }
      ],
      "name": "setTicketPrice",
      "outputs": [],
      "stateMutability": "nonpayable",
      "type": "function"
    },
    {
      "inputs": [],
      "name": "getParticipantsCount",
      "outputs": [
        {
          "internalType": "uint256",
          "name": "",
          "type": "uint256"
        }
      ],
      "stateMutability": "view",
      "type": "function",
      "constant": true
    },
    {
      "inputs": [],
      "name": "getPrizePool",
      "outputs": [
        {
          "internalType": "uint256",
          "name": "",
          "type": "uint256"
        }
      ],
      "stateMutability": "view",
      "type": "function",
      "constant": true
    }
  ],
  "bytecode": "0x60806040523480156200001157600080fd5b506040516200145038038062001450833981810160405281019062000037919062000199565b60016000819055506200005f62000053620000b460201b60201c565b620000bc60201b60201c565b806003819055506001600460146101000a81548160ff0219169083151502179055507f0a1e9642bf7ac3a05efe518bb84b870c97de6e1bf4e0128634427040b4a0c91860405160405180910390a150620001e9565b600033905090565b6000600160009054906101000a900473ffffffffffffffffffffffffffffffffffffffff16905081600160006101000a81548173ffffffffffffffffffffffffffffffffffffffff021916908373ffffffffffffffffffffffffffffffffffffffff1602179055508173ffffffffffffffffffffffffffffffffffffffff168173ffffffffffffffffffffffffffffffffffffffff167f8be0079c531659141344cd1fd0a4f28419497f9722a3daafe3b4186f6b6457e060405160405180910390a35050565b6000815190506200019381620001cf565b92915050565b600060208284031215620001ac57600080fd5b6000620001bc8482850162000182565b91505092915050565b6000819050919050565b620001da81620001c5565b8114620001e657600080fd5b50565b61125780620001f96000396000f3fe6080604052600436106100c25760003560e01c8063884bf67c1161007f578063cabfaa1811610059578063cabfaa181461021e578063edca914c14610249578063f2fde38b14610253578063fe1881841461027c576100c2565b8063884bf67c1461019d5780638da5cb5b146101c8578063c60c4ae9146101f3576100c2565b80631209b1f6146100c757806315981650146100f257806320fe91261461011b57806333a99e041461013257806335c1d34914610149578063715018a614610186575b600080fd5b3480156100d357600080fd5b506100dc6102a7565b6040516100e99190611078565b60405180910390f35b3480156100fe57600080fd5b5061011960048036038101906101149190610b35565b6102ad565b005b34801561012757600080fd5b50610130610302565b005b34801561013e57600080fd5b506101476103a3565b005b34801561015557600080fd5b50610170600480360381019061016b9190610b35565b610623565b60405161017d9190610f22565b60405180910390f35b34801561019257600080fd5b5061019b610662565b005b3480156101a957600080fd5b506101b2610676565b6040516101bf9190611078565b60405180910390f35b3480156101d457600080fd5b506101dd61067e565b6040516101ea9190610f22565b60405180910390f35b3480156101ff57600080fd5b506102086106a8565b6040516102159190610f3d565b60405180910390f35b34801561022a57600080fd5b506102336106bb565b6040516102409190611078565b60405180910390f35b6102516106c8565b005b34801561025f57600080fd5b5061027a60048036038101906102759190610b0c565b61081e565b005b34801561028857600080fd5b506102916108a2565b60405161029e9190610f22565b60405180910390f35b60035481565b6102b56108c8565b600081116102f8576040517f08c379a00000000000000000000000000000000000000000000000000000000081526004016102ef90610f98565b60405180910390fd5b8060038190555050565b61030a6108c8565b600460149054906101000a900460ff161561035a576040517f08c379a000000000000000000000000000000000000000000000000000000000815260040161035190610ff8565b60405180910390fd5b6001600460146101000a81548160ff0219169083151502179055507f0a1e9642bf7ac3a05efe518bb84b870c97de6e1bf4e0128634427040b4a0c91860405160405180910390a1565b6103ab6108c8565b6103b3610946565b6000600280549050116103fb576040517f08c379a00000000000000000000000000000000000000000000000000000000081526004016103f290611018565b60405180910390fd5b600060028054905061040b610996565b6104159190611173565b9050600060028281548110610453577f4e487b7100000000000000000000000000000000000000000000000000000000600052603260045260246000fd5b9060005260206000200160009054906101000a900473ffffffffffffffffffffffffffffffffffffffff169050600047905081600460006101000a81548173ffffffffffffffffffffffffffffffffffffffff021916908373ffffffffffffffffffffffffffffffffffffffff160217905550600260006104d49190610aa4565b6000600460146101000a81548160ff0219169083151502179055507ffc2b180437972a94a98d643b705025c6263c595cce057cc3d910384b8d1d210c60405160405180910390a160008273ffffffffffffffffffffffffffffffffffffffff168260405161054190610ed4565b60006040518083038185875af1925050503d806000811461057e576040519150601f19603f3d011682016040523d82523d6000602084013e610583565b606091505b50509050806105c7576040517f08c379a00000000000000000000000000000000000000000000000000000000081526004016105be90610f78565b60405180910390fd5b8273ffffffffffffffffffffffffffffffffffffffff167f75060f9e79552df167b73353fee6237a75bb5ba8ea022f77224e32f152138bcb8360405161060d9190611078565b60405180910390a2505050506106216109cc565b565b6002818154811061063357600080fd5b906000526020600020016000915054906101000a900473ffffffffffffffffffffffffffffffffffffffff1681565b61066a6108c8565b61067460006109d6565b565b600047905090565b6000600160009054906101000a900473ffffffffffffffffffffffffffffffffffffffff16905090565b600460149054906101000a900460ff1681565b6000600280549050905090565b6106d0610946565b600460149054906101000a900460ff1661071f576040517f08c379a000000000000000000000000000000000000000000000000000000000815260040161071690610fd8565b60405180910390fd5b6003543414610763576040517f08c379a000000000000000000000000000000000000000000000000000000000815260040161075a90610fb8565b60405180910390fd5b6002339080600181540180825580915050600190039060005260206000200160009091909190916101000a81548173ffffffffffffffffffffffffffffffffffffffff021916908373ffffffffffffffffffffffffffffffffffffffff1602179055503373ffffffffffffffffffffffffffffffffffffffff167f0668f5b446eb814fe35b3206f43f14bd8567ba04ddaf7a3ee56516929ab22ccb3460405161080c9190611078565b60405180910390a261081c6109cc565b565b6108266108c8565b600073ffffffffffffffffffffffffffffffffffffffff168173ffffffffffffffffffffffffffffffffffffffff161415610896576040517f08c379a000000000000000000000000000000000000000000000000000000000815260040161088d90610f58565b60405180910390fd5b61089f816109d6565b50565b600460009054906101000a900473ffffffffffffffffffffffffffffffffffffffff1681565b6108d0610a9c565b73ffffffffffffffffffffffffffffffffffffffff166108ee61067e565b73ffffffffffffffffffffffffffffffffffffffff1614610944576040517f08c379a000000000000000000000000000000000000000000000000000000000815260040161093b90611038565b60405180910390fd5b565b6002600054141561098c576040517f08c379a000000000000000000000000000000000000000000000000000000000815260040161098390611058565b60405180910390fd5b6002600081905550565b6000424460026040516020016109ae93929190610ee9565b6040516020818303038152906040528051906020012060001c905090565b6001600081905550565b6000600160009054906101000a900473ffffffffffffffffffffffffffffffffffffffff16905081600160006101000a81548173ffffffffffffffffffffffffffffffffffffffff021916908373ffffffffffffffffffffffffffffffffffffffff1602179055508173ffffffffffffffffffffffffffffffffffffffff168173ffffffffffffffffffffffffffffffffffffffff167f8be0079c531659141344cd1fd0a4f28419497f9722a3daafe3b4186f6b6457e060405160405180910390a35050565b600033905090565b5080546000825590600052602060002090810190610ac29190610ac5565b50565b5b80821115610ade576000816000905550600101610ac6565b5090565b600081359050610af1816111f3565b92915050565b600081359050610b068161120a565b92915050565b600060208284031215610b1e57600080fd5b6000610b2c84828501610ae2565b91505092915050565b600060208284031215610b4757600080fd5b6000610b5584828501610af7565b91505092915050565b6000610b6a8383610b85565b60208301905092915050565b610b7f81611107565b82525050565b610b8e81611107565b82525050565b6000610b9f826110a8565b610ba981856110c0565b9350610bb483611093565b8060005b83811015610bec57610bc9826111d3565b610bd38882610b5e565b9750610bde836110b3565b925050600181019050610bb8565b5085935050505092915050565b610c0281611119565b82525050565b6000610c156026836110d6565b91507f4f776e61626c653a206e6577206f776e657220697320746865207a65726f206160008301527f64647265737300000000000000000000000000000000000000000000000000006020830152604082019050919050565b6000610c7b600f836110d6565b91507f5472616e73666572206661696c656400000000000000000000000000000000006000830152602082019050919050565b6000610cbb6026836110d6565b91507f5469636b6574207072696365206d75737420626520677265617465722074686160008301527f6e207a65726f00000000000000000000000000000000000000000000000000006020830152604082019050919050565b6000610d216018836110d6565b91507f496e636f7272656374207061796d656e7420616d6f756e7400000000000000006000830152602082019050919050565b6000610d616011836110d6565b91507f4c6f747465727920697320636c6f7365640000000000000000000000000000006000830152602082019050919050565b6000610da16017836110d6565b91507f4c6f747465727920697320616c7265616479206f70656e0000000000000000006000830152602082019050919050565b6000610de1601e836110d6565b91507f4e6f207061727469636970616e747320696e20746865206c6f747465727900006000830152602082019050919050565b6000610e216020836110d6565b91507f4f776e61626c653a2063616c6c6572206973206e6f7420746865206f776e65726000830152602082019050919050565b6000610e616000836110cb565b9150600082019050919050565b6000610e7b601f836110d6565b91507f5265656e7472616e637947756172643a207265656e7472616e742063616c6c006000830152602082019050919050565b610eb781611145565b82525050565b610ece610ec982611145565b611169565b82525050565b6000610edf82610e54565b9150819050919050565b6000610ef58286610ebd565b602082019150610f058285610ebd565b602082019150610f158284610b94565b9150819050949350505050565b6000602082019050610f376000830184610b76565b92915050565b6000602082019050610f526000830184610bf9565b92915050565b60006020820190508181036000830152610f7181610c08565b9050919050565b60006020820190508181036000830152610f9181610c6e565b9050919050565b60006020820190508181036000830152610fb181610cae565b9050919050565b60006020820190508181036000830152610fd181610d14565b9050919050565b60006020820190508181036000830152610ff181610d54565b9050919050565b6000602082019050818103600083015261101181610d94565b9050919050565b6000602082019050818103600083015261103181610dd4565b9050919050565b6000602082019050818103600083015261105181610e14565b9050919050565b6000602082019050818103600083015261107181610e6e565b9050919050565b600060208201905061108d6000830184610eae565b92915050565b60008190508160005260206000209050919050565b600081549050919050565b6000600182019050919050565b600081905092915050565b600081905092915050565b600082825260208201905092915050565b600073ffffffffffffffffffffffffffffffffffffffff82169050919050565b600061111282611125565b9050919050565b60008115159050919050565b600073ffffffffffffffffffffffffffffffffffffffff82169050919050565b6000819050919050565b600061116261115d836111e6565b6110e7565b9050919050565b6000819050919050565b600061117e82611145565b915061118983611145565b925082611199576111986111a4565b5b828206905092915050565b7f4e487b7100000000000000000000000000000000000000000000000000000000600052601260045260246000fd5b60006111df825461114f565b9050919050565b60008160001c9050919050565b6111fc81611107565b811461120757600080fd5b50565b61121381611145565b811461121e57600080fd5b5056fea26469706673582212200c2c212fdf65d1e6b3c81811e76d3671004a1fcb82271c348b6d84a71d95622164736f6c63430008000033",
  "immutableReferences": {},
  "source": "// SPDX-License-Identifier: MIT\r\npragma solidity ^0.8.0;\r\n\r\nimport \"@openzeppelin/contracts/security/ReentrancyGuard.sol\";\r\nimport \"@openzeppelin/contracts/access/Ownable.sol\";\r\n\r\n/**\r\n * @title DecentralizedLottery\r\n * @dev A simple lottery contract where users can buy tickets and a winner is randomly selected\r\n */\r\ncontract DecentralizedLottery is ReentrancyGuard, Ownable { \r\n    // State variables\r\n    address[] public participants;\r\n    uint256 public ticketPrice;\r\n    address public lastWinner;\r\n    bool public lotteryOpen;\r\n    \r\n    // Events\r\n    event TicketPurchased(address indexed player, uint256 ticketPrice);\r\n    event WinnerSelected(address indexed winner, uint256 prizeAmount);\r\n    event LotteryOpened();\r\n    event LotteryClosed();\r\n    \r\n    /**\r\n     * @dev Constructor to initialize the lottery\r\n     * @param _ticketPrice Price of a single lottery ticket in Wei\r\n     */\r\n    constructor(uint256 _ticketPrice) {\r\n        ticketPrice = _ticketPrice;\r\n        lotteryOpen = true;\r\n        emit LotteryOpened();\r\n    }\r\n    \r\n    /**\r\n     * @dev Function to buy a lottery ticket\r\n     * Requirements:\r\n     * - Lottery must be open\r\n     * - Exact ticket price must be sent\r\n     */\r\n    function buyTicket() external payable nonReentrant {\r\n        require(lotteryOpen, \"Lottery is closed\");\r\n        require(msg.value == ticketPrice, \"Incorrect payment amount\");\r\n        \r\n        participants.push(msg.sender);\r\n        emit TicketPurchased(msg.sender, msg.value);\r\n    }\r\n    \r\n    /**\r\n     * @dev Function to select a winner and distribute the prize pool\r\n     * Requirements:\r\n     * - Only contract owner can call this function\r\n     * - At least one participant must exist\r\n     */\r\n    function selectWinner() external onlyOwner nonReentrant {\r\n        require(participants.length > 0, \"No participants in the lottery\");\r\n        \r\n        uint256 winnerIndex = _generateRandomNumber() % participants.length;\r\n        address winner = participants[winnerIndex];\r\n        uint256 prizeAmount = address(this).balance;\r\n        \r\n        lastWinner = winner;\r\n        \r\n        // Reset lottery state\r\n        delete participants;\r\n        lotteryOpen = false;\r\n        emit LotteryClosed();\r\n        \r\n        // Transfer prize pool to winner\r\n        (bool success, ) = winner.call{value: prizeAmount}(\"\");\r\n        require(success, \"Transfer failed\");\r\n        \r\n        emit WinnerSelected(winner, prizeAmount);\r\n    }\r\n    \r\n    /**\r\n     * @dev Function to start a new lottery after a winner has been selected\r\n     * Requirements:\r\n     * - Only contract owner can call this function\r\n     * - Lottery must be closed\r\n     */\r\n    function openNewLottery() external onlyOwner {\r\n        require(!lotteryOpen, \"Lottery is already open\");\r\n        lotteryOpen = true;\r\n        emit LotteryOpened();\r\n    }\r\n    \r\n    /**\r\n     * @dev Function to update the ticket price\r\n     * Requirements:\r\n     * - Only contract owner can call this function\r\n     * - New price must be greater than zero\r\n     */\r\n    function setTicketPrice(uint256 _newPrice) external onlyOwner {\r\n        require(_newPrice > 0, \"Ticket price must be greater than zero\");\r\n        ticketPrice = _newPrice;\r\n    }\r\n    \r\n    /**\r\n     * @dev Function to get the number of participants\r\n     * @return The current number of participants\r\n     */\r\n    function getParticipantsCount() external view returns (uint256) {\r\n        return participants.length;\r\n    }\r\n    \r\n    /**\r\n     * @dev Function to get the current prize pool\r\n     * @return The current balance of the contract\r\n     */\r\n    function getPrizePool() external view returns (uint256) {\r\n        return address(this).balance;\r\n    }\r\n    \r\n    /**\r\n     * @dev Internal function to generate a pseudo-random number\r\n     * @return A pseudo-random uint256 value\r\n     * Note: This is not secure for production use as miners can manipulate block values\r\n     */\r\n    function _generateRandomNumber() internal view returns (uint256) {\r\n        return uint256(keccak256(abi.encodePacked(block.timestamp, block.difficulty, participants)));\r\n    }\r\n}",
  "sourcePath": "C:\\Users\\Subhas Kr Gupta\\Downloads\\project_4\\contracts\\DecentralizedLottery.sol",
  "compiler": {
    "name": "solc",
    "version": "0.8.0+commit.c7dfd78e.Emscripten.clang"
  },
  "schemaVersion": "3.4.16",
  "updatedAt": "2025-04-27T03:54:38.648Z",
  "networkType": "ethereum",
  "devdoc": {
    "details": "A simple lottery contract where users can buy tickets and a winner is randomly selected",
    "kind": "dev",
    "methods": {
      "buyTicket()": {
        "details": "Function to buy a lottery ticket Requirements: - Lottery must be open - Exact ticket price must be sent"
      },
      "constructor": {
        "details": "Constructor to initialize the lottery",
        "params": {
          "_ticketPrice": "Price of a single lottery ticket in Wei"
        }
      },
      "getParticipantsCount()": {
        "details": "Function to get the number of participants",
        "returns": {
          "_0": "The current number of participants"
        }
      },
      "getPrizePool()": {
        "details": "Function to get the current prize pool",
        "returns": {
          "_0": "The current balance of the contract"
        }
      },
      "openNewLottery()": {
        "details": "Function to start a new lottery after a winner has been selected Requirements: - Only contract owner can call this function - Lottery must be closed"
      },
      "owner()": {
        "details": "Returns the address of the current owner."
      },
      "renounceOwnership()": {
        "details": "Leaves the contract without owner. It will not be possible to call `onlyOwner` functions. Can only be called by the current owner. NOTE: Renouncing ownership will leave the contract without an owner, thereby disabling any functionality that is only available to the owner."
      },
      "selectWinner()": {
        "details": "Function to select a winner and distribute the prize pool Requirements: - Only contract owner can call this function - At least one participant must exist"
      },
      "setTicketPrice(uint256)": {
        "details": "Function to update the ticket price Requirements: - Only contract owner can call this function - New price must be greater than zero"
      },
      "transferOwnership(address)": {
        "details": "Transfers ownership of the contract to a new account (`newOwner`). Can only be called by the current owner."
      }
    },
    "title": "DecentralizedLottery",
    "version": 1
  },
  "userdoc": {
    "kind": "user",
    "methods": {},
    "version": 1
  }
}